{"abi":[{"type":"constructor","inputs":[{"name":"_feeToSetter","type":"address","internalType":"address"}],"stateMutability":"nonpayable"},{"type":"function","name":"allPairs","inputs":[{"name":"","type":"uint256","internalType":"uint256"}],"outputs":[{"name":"","type":"address","internalType":"address"}],"stateMutability":"view"},{"type":"function","name":"allPairsLength","inputs":[],"outputs":[{"name":"","type":"uint256","internalType":"uint256"}],"stateMutability":"view"},{"type":"function","name":"createPair","inputs":[{"name":"tokenA","type":"address","internalType":"address"},{"name":"tokenB","type":"address","internalType":"address"},{"name":"feeRate","type":"uint256","internalType":"uint256"}],"outputs":[{"name":"pair","type":"address","internalType":"address"}],"stateMutability":"nonpayable"},{"type":"function","name":"feeTo","inputs":[],"outputs":[{"name":"","type":"address","internalType":"address"}],"stateMutability":"view"},{"type":"function","name":"feeToSetter","inputs":[],"outputs":[{"name":"","type":"address","internalType":"address"}],"stateMutability":"view"},{"type":"function","name":"getPair","inputs":[{"name":"","type":"address","internalType":"address"},{"name":"","type":"address","internalType":"address"},{"name":"","type":"uint256","internalType":"uint256"}],"outputs":[{"name":"","type":"address","internalType":"address"}],"stateMutability":"view"},{"type":"function","name":"setFeeTo","inputs":[{"name":"_feeTo","type":"address","internalType":"address"}],"outputs":[],"stateMutability":"nonpayable"},{"type":"function","name":"setFeeToSetter","inputs":[{"name":"_feeToSetter","type":"address","internalType":"address"}],"outputs":[],"stateMutability":"nonpayable"},{"type":"function","name":"setLpMtRatio","inputs":[{"name":"pool","type":"address","internalType":"address"},{"name":"ratio","type":"uint256","internalType":"uint256"}],"outputs":[],"stateMutability":"nonpayable"},{"type":"event","name":"PairCreated","inputs":[{"name":"token0","type":"address","indexed":true,"internalType":"address"},{"name":"token1","type":"address","indexed":true,"internalType":"address"},{"name":"pair","type":"address","indexed":false,"internalType":"address"},{"name":"feeRate","type":"uint256","indexed":false,"internalType":"uint256"}],"anonymous":false}],"bytecode":{"object":"0x608060405234801561001057600080fd5b50604051612f3e380380612f3e8339818101604052602081101561003357600080fd5b5051600180546001600160a01b0319166001600160a01b03909216919091179055612edb806100636000396000f3fe608060405234801561001057600080fd5b50600436106100935760003560e01c8063574f2ba311610066578063574f2ba31461010f5780635eced480146101295780636b600d1c1461015f578063a2e74af614610195578063f46901ed146101bb57610093565b8063017e7e5814610098578063094b7415146100bc5780631e3dd18b146100c45780634a4f2ace146100e1575b600080fd5b6100a06101e1565b604080516001600160a01b039092168252519081900360200190f35b6100a06101f0565b6100a0600480360360208110156100da57600080fd5b50356101ff565b61010d600480360360408110156100f757600080fd5b506001600160a01b038135169060200135610226565b005b6101176102de565b60408051918252519081900360200190f35b6100a06004803603606081101561013f57600080fd5b506001600160a01b038135811691602081013590911690604001356102e4565b6100a06004803603606081101561017557600080fd5b506001600160a01b03813581169160208101359091169060400135610310565b61010d600480360360208110156101ab57600080fd5b50356001600160a01b0316610720565b61010d600480360360208110156101d157600080fd5b50356001600160a01b0316610798565b6000546001600160a01b031681565b6001546001600160a01b031681565b6003818154811061020c57fe5b6000918252602090912001546001600160a01b0316905081565b6001546001600160a01b0316331461027c576040805162461bcd60e51b81526020600482015260146024820152732ab734b9bbb0b82b191d102327a92124a22222a760611b604482015290519081900360640190fd5b816001600160a01b031663a1e281de826040518263ffffffff1660e01b815260040180828152602001915050600060405180830381600087803b1580156102c257600080fd5b505af11580156102d6573d6000803e3d6000fd5b505050505050565b60035490565b60026020908152600093845260408085208252928452828420905282529020546001600160a01b031681565b6000826001600160a01b0316846001600160a01b03161415610379576040805162461bcd60e51b815260206004820152601e60248201527f556e697377617056323a204944454e544943414c5f4144445245535345530000604482015290519081900360640190fd5b600080846001600160a01b0316866001600160a01b03161061039c57848661039f565b85855b9092509050670de0b6b3a7640000841115610401576040805162461bcd60e51b815260206004820152601c60248201527f556e697377617056323a204645455f524154455f4f564552464c4f5700000000604482015290519081900360640190fd5b6001600160a01b03821661045c576040805162461bcd60e51b815260206004820152601760248201527f556e697377617056323a205a45524f5f41444452455353000000000000000000604482015290519081900360640190fd5b6001600160a01b0382811660009081526002602090815260408083208585168452825280832088845290915290205416156104d7576040805162461bcd60e51b8152602060048201526016602482015275556e697377617056323a20504149525f45584953545360501b604482015290519081900360640190fd5b6060604051806020016104e990610810565b6020820181038252601f19601f820116604052509050600083838760405160200180846001600160a01b03166001600160a01b031660601b8152601401836001600160a01b03166001600160a01b031660601b81526014018281526020019350505050604051602081830303815290604052805190602001209050808251602084016000f56040805163485cc95560e01b81526001600160a01b038781166004830152868116602483015291519297509087169163485cc9559160448082019260009290919082900301818387803b1580156105c457600080fd5b505af11580156105d8573d6000803e3d6000fd5b50505050846001600160a01b03166345596e2e876040518263ffffffff1660e01b815260040180828152602001915050600060405180830381600087803b15801561062257600080fd5b505af1158015610636573d6000803e3d6000fd5b505050506001600160a01b0384811660008181526002602081815260408084208987168086529083528185208d865283528185208054978d166001600160a01b0319988916811790915581865293835281852086865283528185208d86528352818520805488168517905560038054600181018255958190527fc2575a0e9e593c00f959f8c92f12db2869c3395a3b0502d05e2516446f71f85b90950180549097168417909655925483519283529082015281517f0d3648bd0f6ba80134a33ba9275ac585d9d315f0ad8355cddefde31afa28d0e9929181900390910190a3505050509392505050565b6001546001600160a01b03163314610776576040805162461bcd60e51b81526020600482015260146024820152732ab734b9bbb0b82b191d102327a92124a22222a760611b604482015290519081900360640190fd5b600180546001600160a01b0319166001600160a01b0392909216919091179055565b6001546001600160a01b031633146107ee576040805162461bcd60e51b81526020600482015260146024820152732ab734b9bbb0b82b191d102327a92124a22222a760611b604482015290519081900360640190fd5b600080546001600160a01b0319166001600160a01b0392909216919091179055565b6126898061081e8339019056fe6080604052660aa87bee538000600c556006600d556001600e5534801561002557600080fd5b5060405146908060526126378239604080519182900360520182208282018252600a8352692ab734b9bbb0b8102b1960b11b6020938401528151808301835260018152603160f81b908401528151808401919091527fbfcc8ef98ffbf7b6c3fec7bf5185b566b9863e35a9d83acd49ad6824b5969738818301527fc89efdaa54c0f20c7adf612882df0950f5a951637e0307cdcb4c672f298b8bc6606082015260808101949094523060a0808601919091528151808603909101815260c09094019052825192019190912060035550600580546001600160a01b03191633179055612522806101156000396000f3fe608060405234801561001057600080fd5b50600436106101e55760003560e01c806370a082311161010f578063a9059cbb116100a2578063d21220a711610071578063d21220a7146105ba578063d505accf146105c2578063dd62ed3e14610613578063fff6cae914610641576101e5565b8063a9059cbb14610558578063ba9a7a5614610584578063bc25cf771461058c578063c45a0155146105b2576101e5565b806395d89b41116100de57806395d89b41146105235780639670a8cb1461052b578063978bbdb914610533578063a1e281de1461053b576101e5565b806370a08231146104905780637464fc3d146104b65780637ecebe00146104be57806389afcb44146104e4576101e5565b806330adf81f11610187578063485cc95511610156578063485cc9551461042c5780635909c0d51461045a5780635a3d5493146104625780636a6278421461046a576101e5565b806330adf81f146103e1578063313ce567146103e95780633644e5151461040757806345596e2e1461040f576101e5565b8063095ea7b3116101c3578063095ea7b31461032d5780630dfe16811461036d57806318160ddd1461039157806323b872dd146103ab576101e5565b8063022c0d9f146101ea57806306fdde03146102785780630902f1ac146102f5575b600080fd5b6102766004803603608081101561020057600080fd5b8135916020810135916001600160a01b03604083013516919081019060808101606082013564010000000081111561023757600080fd5b82018360208201111561024957600080fd5b8035906020019184600183028401116401000000008311171561026b57600080fd5b509092509050610649565b005b610280610b9e565b6040805160208082528351818301528351919283929083019185019080838360005b838110156102ba5781810151838201526020016102a2565b50505050905090810190601f1680156102e75780820380516001836020036101000a031916815260200191505b509250505060405180910390f35b6102fd610bc4565b604080516001600160701b03948516815292909316602083015263ffffffff168183015290519081900360600190f35b6103596004803603604081101561034357600080fd5b506001600160a01b038135169060200135610bee565b604080519115158252519081900360200190f35b610375610c05565b604080516001600160a01b039092168252519081900360200190f35b610399610c14565b60408051918252519081900360200190f35b610359600480360360608110156103c157600080fd5b506001600160a01b03813581169160208101359091169060400135610c1a565b610399610cb4565b6103f1610cd8565b6040805160ff9092168252519081900360200190f35b610399610cdd565b6102766004803603602081101561042557600080fd5b5035610ce3565b6102766004803603604081101561044257600080fd5b506001600160a01b0381358116916020013516610ddd565b610399610e61565b610399610e67565b6103996004803603602081101561048057600080fd5b50356001600160a01b0316610e6d565b610399600480360360208110156104a657600080fd5b50356001600160a01b031661116d565b61039961117f565b610399600480360360208110156104d457600080fd5b50356001600160a01b0316611185565b61050a600480360360208110156104fa57600080fd5b50356001600160a01b0316611197565b6040805192835260208301919091528051918290030190f35b61028061153d565b61039961155f565b610399611565565b6102766004803603602081101561055157600080fd5b503561156b565b6103596004803603604081101561056e57600080fd5b506001600160a01b038135169060200135611651565b61039961165e565b610276600480360360208110156105a257600080fd5b50356001600160a01b0316611664565b6103756117cf565b6103756117de565b610276600480360360e08110156105d857600080fd5b506001600160a01b03813581169160208101359091169060408101359060608101359060ff6080820135169060a08101359060c001356117ed565b6103996004803603604081101561062957600080fd5b506001600160a01b03813581169160200135166119ef565b610276611a0c565b600e54600114610694576040805162461bcd60e51b8152602060048201526011602482015270155b9a5cddd85c158c8e881313d0d2d151607a1b604482015290519081900360640190fd5b6000600e55841515806106a75750600084115b6106e25760405162461bcd60e51b81526004018080602001828103825260258152602001806124346025913960400191505060405180910390fd5b6000806106ed610bc4565b5091509150816001600160701b0316871080156107125750806001600160701b031686105b61074d5760405162461bcd60e51b815260040180806020018281038252602181526020018061247d6021913960400191505060405180910390fd5b60065460075460009182916001600160a01b0391821691908116908916821480159061078b5750806001600160a01b0316896001600160a01b031614155b6107d4576040805162461bcd60e51b8152602060048201526015602482015274556e697377617056323a20494e56414c49445f544f60581b604482015290519081900360640190fd5b8a156107e5576107e5828a8d611b6e565b89156107f6576107f6818a8c611b6e565b86156108b157886001600160a01b03166310d1e85c338d8d8c8c6040518663ffffffff1660e01b815260040180866001600160a01b03166001600160a01b03168152602001858152602001848152602001806020018281038252848482818152602001925080828437600081840152601f19601f8201169050808301925050509650505050505050600060405180830381600087803b15801561089857600080fd5b505af11580156108ac573d6000803e3d6000fd5b505050505b604080516370a0823160e01b815230600482015290516001600160a01b038416916370a08231916024808301926020929190829003018186803b1580156108f757600080fd5b505afa15801561090b573d6000803e3d6000fd5b505050506040513d602081101561092157600080fd5b5051604080516370a0823160e01b815230600482015290519195506001600160a01b038316916370a0823191602480820192602092909190829003018186803b15801561096d57600080fd5b505afa158015610981573d6000803e3d6000fd5b505050506040513d602081101561099757600080fd5b5051925060009150506001600160701b0385168a900383116109ba5760006109c9565b89856001600160701b03160383035b9050600089856001600160701b03160383116109e65760006109f5565b89856001600160701b03160383035b90506000821180610a065750600081115b610a415760405162461bcd60e51b81526004018080602001828103825260248152602001806124596024913960400191505060405180910390fd5b6000610a7f610a5b600c5485611d0890919063ffffffff16565b610a7387670de0b6b3a764000063ffffffff611d0816565b9063ffffffff611d6b16565b90506000610a9b610a5b600c5485611d0890919063ffffffff16565b9050610ad86ec097ce7bc90715b34b9f1000000000610acc6001600160701b038b8116908b1663ffffffff611d0816565b9063ffffffff611d0816565b610ae8838363ffffffff611d0816565b1015610b2a576040805162461bcd60e51b815260206004820152600c60248201526b556e697377617056323a204b60a01b604482015290519081900360640190fd5b5050610b3884848888611dbb565b60408051838152602081018390528082018d9052606081018c905290516001600160a01b038b169133917fd78ad95fa46c994b6551d0da85fc275fe613ce37657fb8d5e3d130840159d8229181900360800190a350506001600e55505050505050505050565b6040518060400160405280600a8152602001692ab734b9bbb0b8102b1960b11b81525081565b6008546001600160701b0380821692600160701b830490911691600160e01b900463ffffffff1690565b6000610bfb338484611f80565b5060015b92915050565b6006546001600160a01b031681565b60005481565b6001600160a01b038316600090815260026020908152604080832033845290915281205460001914610c9f576001600160a01b0384166000908152600260209081526040808320338452909152902054610c7a908363ffffffff611d6b16565b6001600160a01b03851660009081526002602090815260408083203384529091529020555b610caa848484611fe2565b5060019392505050565b7f6e71edae12b1b97f4d1f60370fef10105fa2faae0126114a169c64845d6126c981565b601281565b60035481565b6005546001600160a01b03163314610d39576040805162461bcd60e51b81526020600482015260146024820152732ab734b9bbb0b82b191d102327a92124a22222a760611b604482015290519081900360640190fd5b670de0b6b3a76400008111158015610d515750600081115b610da2576040805162461bcd60e51b815260206004820152601b60248201527f556e697377617056323a20494e56414c49445f4645455f524154450000000000604482015290519081900360640190fd5b600c8190556040805182815290517f3c1e62a4ff965f1041d6f0acfec71627afe4c14eab118a5ba1f6dd783a03a05e9181900360200190a150565b6005546001600160a01b03163314610e33576040805162461bcd60e51b81526020600482015260146024820152732ab734b9bbb0b82b191d102327a92124a22222a760611b604482015290519081900360640190fd5b600680546001600160a01b039384166001600160a01b03199182161790915560078054929093169116179055565b60095481565b600a5481565b6000600e54600114610eba576040805162461bcd60e51b8152602060048201526011602482015270155b9a5cddd85c158c8e881313d0d2d151607a1b604482015290519081900360640190fd5b6000600e81905580610eca610bc4565b50600654604080516370a0823160e01b815230600482015290519395509193506000926001600160a01b03909116916370a08231916024808301926020929190829003018186803b158015610f1e57600080fd5b505afa158015610f32573d6000803e3d6000fd5b505050506040513d6020811015610f4857600080fd5b5051600754604080516370a0823160e01b815230600482015290519293506000926001600160a01b03909216916370a0823191602480820192602092909190829003018186803b158015610f9b57600080fd5b505afa158015610faf573d6000803e3d6000fd5b505050506040513d6020811015610fc557600080fd5b505190506000610fe4836001600160701b03871663ffffffff611d6b16565b90506000611001836001600160701b03871663ffffffff611d6b16565b9050600061100f878761209c565b6000549091508061104c576110386103e8610a73611033878763ffffffff611d0816565b61220f565b985061104760006103e8612261565b61109b565b6110986001600160701b038916611069868463ffffffff611d0816565b8161107057fe5b046001600160701b03891661108b868563ffffffff611d0816565b8161109257fe5b046122f7565b98505b600089116110da5760405162461bcd60e51b81526004018080602001828103825260288152602001806124c66028913960400191505060405180910390fd5b6110e48a8a612261565b6110f086868a8a611dbb565b81156111205760085461111c906001600160701b0380821691600160701b90041663ffffffff611d0816565b600b555b6040805185815260208101859052815133927f4c209b5fc8ad50758f13e2e1088ba56a560dff690a1c6fef26394f4c03821c4f928290030190a250506001600e5550949695505050505050565b60016020526000908152604090205481565b600b5481565b60046020526000908152604090205481565b600080600e546001146111e5576040805162461bcd60e51b8152602060048201526011602482015270155b9a5cddd85c158c8e881313d0d2d151607a1b604482015290519081900360640190fd5b6000600e819055806111f5610bc4565b50600654600754604080516370a0823160e01b815230600482015290519496509294506001600160a01b039182169391169160009184916370a08231916024808301926020929190829003018186803b15801561125157600080fd5b505afa158015611265573d6000803e3d6000fd5b505050506040513d602081101561127b57600080fd5b5051604080516370a0823160e01b815230600482015290519192506000916001600160a01b038516916370a08231916024808301926020929190829003018186803b1580156112c957600080fd5b505afa1580156112dd573d6000803e3d6000fd5b505050506040513d60208110156112f357600080fd5b505130600090815260016020526040812054919250611312888861209c565b60005490915080611329848763ffffffff611d0816565b8161133057fe5b049a5080611344848663ffffffff611d0816565b8161134b57fe5b04995060008b11801561135e575060008a115b6113995760405162461bcd60e51b815260040180806020018281038252602881526020018061249e6028913960400191505060405180910390fd5b6113a3308461230f565b6113ae878d8d611b6e565b6113b9868d8c611b6e565b604080516370a0823160e01b815230600482015290516001600160a01b038916916370a08231916024808301926020929190829003018186803b1580156113ff57600080fd5b505afa158015611413573d6000803e3d6000fd5b505050506040513d602081101561142957600080fd5b5051604080516370a0823160e01b815230600482015290519196506001600160a01b038816916370a0823191602480820192602092909190829003018186803b15801561147557600080fd5b505afa158015611489573d6000803e3d6000fd5b505050506040513d602081101561149f57600080fd5b505193506114af85858b8b611dbb565b81156114df576008546114db906001600160701b0380821691600160701b90041663ffffffff611d0816565b600b555b604080518c8152602081018c905281516001600160a01b038f169233927fdccd412f0b1252819cb1fd330b93224ca42612892bb3f4f789976e6d81936496929081900390910190a35050505050505050506001600e81905550915091565b604051806040016040528060068152602001652aa72496ab1960d11b81525081565b600d5481565b600c5481565b6005546001600160a01b031633146115c1576040805162461bcd60e51b81526020600482015260146024820152732ab734b9bbb0b82b191d102327a92124a22222a760611b604482015290519081900360640190fd5b60008111611616576040805162461bcd60e51b815260206004820152601e60248201527f556e697377617056323a20494e56414c49445f4c505f4d545f524154494f0000604482015290519081900360640190fd5b600d8190556040805182815290517f5ed0b2a1ced5a9183934deec6a67000407368d05ed94508c0c7950f78df556669181900360200190a150565b6000610bfb338484611fe2565b6103e881565b600e546001146116af576040805162461bcd60e51b8152602060048201526011602482015270155b9a5cddd85c158c8e881313d0d2d151607a1b604482015290519081900360640190fd5b6000600e55600654600754600854604080516370a0823160e01b815230600482015290516001600160a01b03948516949093169261175e9285928792611759926001600160701b03169185916370a0823191602480820192602092909190829003018186803b15801561172157600080fd5b505afa158015611735573d6000803e3d6000fd5b505050506040513d602081101561174b57600080fd5b50519063ffffffff611d6b16565b611b6e565b600854604080516370a0823160e01b815230600482015290516117c5928492879261175992600160701b90046001600160701b0316916001600160a01b038616916370a0823191602480820192602092909190829003018186803b15801561172157600080fd5b50506001600e5550565b6005546001600160a01b031681565b6007546001600160a01b031681565b42841015611837576040805162461bcd60e51b8152602060048201526012602482015271155b9a5cddd85c158c8e881156141254915160721b604482015290519081900360640190fd5b6003546001600160a01b0380891660008181526004602090815260408083208054600180820190925582517f6e71edae12b1b97f4d1f60370fef10105fa2faae0126114a169c64845d6126c98186015280840196909652958d166060860152608085018c905260a085019590955260c08085018b90528151808603909101815260e08501825280519083012061190160f01b6101008601526101028501969096526101228085019690965280518085039096018652610142840180825286519683019690962095839052610162840180825286905260ff89166101828501526101a284018890526101c28401879052519193926101e280820193601f1981019281900390910190855afa158015611952573d6000803e3d6000fd5b5050604051601f1901519150506001600160a01b038116158015906119885750886001600160a01b0316816001600160a01b0316145b6119d9576040805162461bcd60e51b815260206004820152601c60248201527f556e697377617056323a20494e56414c49445f5349474e415455524500000000604482015290519081900360640190fd5b6119e4898989611f80565b505050505050505050565b600260209081526000928352604080842090915290825290205481565b600e54600114611a57576040805162461bcd60e51b8152602060048201526011602482015270155b9a5cddd85c158c8e881313d0d2d151607a1b604482015290519081900360640190fd5b6000600e55600654604080516370a0823160e01b81523060048201529051611b67926001600160a01b0316916370a08231916024808301926020929190829003018186803b158015611aa857600080fd5b505afa158015611abc573d6000803e3d6000fd5b505050506040513d6020811015611ad257600080fd5b5051600754604080516370a0823160e01b815230600482015290516001600160a01b03909216916370a0823191602480820192602092909190829003018186803b158015611b1f57600080fd5b505afa158015611b33573d6000803e3d6000fd5b505050506040513d6020811015611b4957600080fd5b50516008546001600160701b0380821691600160701b900416611dbb565b6001600e55565b604080518082018252601981527f7472616e7366657228616464726573732c75696e74323536290000000000000060209182015281516001600160a01b0385811660248301526044808301869052845180840390910181526064909201845291810180516001600160e01b031663a9059cbb60e01b1781529251815160009460609489169392918291908083835b60208310611c1b5780518252601f199092019160209182019101611bfc565b6001836020036101000a0380198251168184511680821785525050505050509050019150506000604051808303816000865af19150503d8060008114611c7d576040519150601f19603f3d011682016040523d82523d6000602084013e611c82565b606091505b5091509150818015611cb0575080511580611cb05750808060200190516020811015611cad57600080fd5b50515b611d01576040805162461bcd60e51b815260206004820152601a60248201527f556e697377617056323a205452414e534645525f4641494c4544000000000000604482015290519081900360640190fd5b5050505050565b6000811580611d2357505080820282828281611d2057fe5b04145b610bff576040805162461bcd60e51b815260206004820152601460248201527364732d6d6174682d6d756c2d6f766572666c6f7760601b604482015290519081900360640190fd5b80820382811115610bff576040805162461bcd60e51b815260206004820152601560248201527464732d6d6174682d7375622d756e646572666c6f7760581b604482015290519081900360640190fd5b6001600160701b038411801590611dd957506001600160701b038311155b611e20576040805162461bcd60e51b8152602060048201526013602482015272556e697377617056323a204f564552464c4f5760681b604482015290519081900360640190fd5b60085463ffffffff42811691600160e01b90048116820390811615801590611e5057506001600160701b03841615155b8015611e6457506001600160701b03831615155b15611ed5578063ffffffff16611e9285611e7d866123ad565b6001600160e01b03169063ffffffff6123bf16565b600980546001600160e01b03929092169290920201905563ffffffff8116611ebd84611e7d876123ad565b600a80546001600160e01b0392909216929092020190555b600880546dffffffffffffffffffffffffffff19166001600160701b03888116919091176dffffffffffffffffffffffffffff60701b1916600160701b8883168102919091176001600160e01b0316600160e01b63ffffffff871602179283905560408051848416815291909304909116602082015281517f1c411e9a96e071241c2f21f7726b17ae89e3cab4c78be50e062b03a9fffbbad1929181900390910190a1505050505050565b6001600160a01b03808416600081815260026020908152604080832094871680845294825291829020859055815185815291517f8c5be1e5ebec7d5bd14f71427d1e84f3dd0314c0f7b2291e5b200ac8c7c3b9259281900390910190a3505050565b6001600160a01b03831660009081526001602052604090205461200b908263ffffffff611d6b16565b6001600160a01b038085166000908152600160205260408082209390935590841681522054612040908263ffffffff6123e416565b6001600160a01b0380841660008181526001602090815260409182902094909455805185815290519193928716927fddf252ad1be2c89b69c2b068fc378daa952ba7f163c4a11628f55a4df523b3ef92918290030190a3505050565b600080600560009054906101000a90046001600160a01b03166001600160a01b031663017e7e586040518163ffffffff1660e01b815260040160206040518083038186803b1580156120ed57600080fd5b505afa158015612101573d6000803e3d6000fd5b505050506040513d602081101561211757600080fd5b5051600b546001600160a01b0382161580159450919250906121fb5780156121f657600061215a6110336001600160701b0388811690881663ffffffff611d0816565b905060006121678361220f565b9050808211156121f3576000612195612186848463ffffffff611d6b16565b6000549063ffffffff611d0816565b905060006121cf836121c36121b66001600d54611d6b90919063ffffffff16565b879063ffffffff611d0816565b9063ffffffff6123e416565b905060008183816121dc57fe5b04905080156121ef576121ef8782612261565b5050505b50505b612207565b8015612207576000600b555b505092915050565b60006003821115612252575080600160028204015b8181101561224c5780915060028182858161223b57fe5b04018161224457fe5b049050612224565b5061225c565b811561225c575060015b919050565b600054612274908263ffffffff6123e416565b60009081556001600160a01b03831681526001602052604090205461229f908263ffffffff6123e416565b6001600160a01b03831660008181526001602090815260408083209490945583518581529351929391927fddf252ad1be2c89b69c2b068fc378daa952ba7f163c4a11628f55a4df523b3ef9281900390910190a35050565b60008183106123065781612308565b825b9392505050565b6001600160a01b038216600090815260016020526040902054612338908263ffffffff611d6b16565b6001600160a01b03831660009081526001602052604081209190915554612365908263ffffffff611d6b16565b60009081556040805183815290516001600160a01b038516917fddf252ad1be2c89b69c2b068fc378daa952ba7f163c4a11628f55a4df523b3ef919081900360200190a35050565b6001600160701b0316600160701b0290565b60006001600160701b0382166001600160e01b038416816123dc57fe5b049392505050565b80820182811015610bff576040805162461bcd60e51b815260206004820152601460248201527364732d6d6174682d6164642d6f766572666c6f7760601b604482015290519081900360640190fdfe556e697377617056323a20494e53554646494349454e545f4f55545055545f414d4f554e54556e697377617056323a20494e53554646494349454e545f494e5055545f414d4f554e54556e697377617056323a20494e53554646494349454e545f4c4951554944495459556e697377617056323a20494e53554646494349454e545f4c49515549444954595f4255524e4544556e697377617056323a20494e53554646494349454e545f4c49515549444954595f4d494e544544a265627a7a72315820a70f095d93ce940e7a75abf57da3e824b72e3d9890eb2b034ba42addd6c4a78064736f6c63430005100032454950373132446f6d61696e28737472696e67206e616d652c737472696e672076657273696f6e2c75696e7432353620636861696e49642c6164647265737320766572696679696e67436f6e747261637429a265627a7a723158209a2273211c090f8ad664d02d07a39deabcc9cc8a8b6133eabe89f9a390fd5f1964736f6c63430005100032","linkReferences":{}},"methodIdentifiers":{"allPairs(uint256)":"1e3dd18b","allPairsLength()":"574f2ba3","createPair(address,address,uint256)":"6b600d1c","feeTo()":"017e7e58","feeToSetter()":"094b7415","getPair(address,address,uint256)":"5eced480","setFeeTo(address)":"f46901ed","setFeeToSetter(address)":"a2e74af6","setLpMtRatio(address,uint256)":"4a4f2ace"},"id":1}